{
  "contractName": "Library",
  "abi": [
    {
      "inputs": [],
      "stateMutability": "nonpayable",
      "type": "constructor"
    },
    {
      "anonymous": false,
      "inputs": [
        {
          "indexed": false,
          "internalType": "uint256",
          "name": "bookId",
          "type": "uint256"
        },
        {
          "indexed": false,
          "internalType": "string",
          "name": "title",
          "type": "string"
        },
        {
          "indexed": false,
          "internalType": "uint256",
          "name": "copies",
          "type": "uint256"
        }
      ],
      "name": "BookAdded",
      "type": "event"
    },
    {
      "anonymous": false,
      "inputs": [
        {
          "indexed": false,
          "internalType": "string",
          "name": "username",
          "type": "string"
        },
        {
          "indexed": false,
          "internalType": "uint256",
          "name": "bookId",
          "type": "uint256"
        },
        {
          "indexed": false,
          "internalType": "uint256",
          "name": "timestamp",
          "type": "uint256"
        },
        {
          "indexed": false,
          "internalType": "uint256",
          "name": "dueDate",
          "type": "uint256"
        }
      ],
      "name": "BookIssued",
      "type": "event"
    },
    {
      "anonymous": false,
      "inputs": [
        {
          "indexed": false,
          "internalType": "string",
          "name": "username",
          "type": "string"
        },
        {
          "indexed": false,
          "internalType": "uint256",
          "name": "bookId",
          "type": "uint256"
        },
        {
          "indexed": false,
          "internalType": "uint256",
          "name": "timestamp",
          "type": "uint256"
        },
        {
          "indexed": false,
          "internalType": "uint256",
          "name": "fine",
          "type": "uint256"
        }
      ],
      "name": "BookReturned",
      "type": "event"
    },
    {
      "anonymous": false,
      "inputs": [
        {
          "indexed": false,
          "internalType": "string",
          "name": "username",
          "type": "string"
        },
        {
          "indexed": false,
          "internalType": "uint256",
          "name": "bookId",
          "type": "uint256"
        },
        {
          "indexed": false,
          "internalType": "uint256",
          "name": "amount",
          "type": "uint256"
        },
        {
          "indexed": false,
          "internalType": "uint256",
          "name": "timestamp",
          "type": "uint256"
        }
      ],
      "name": "FinePaid",
      "type": "event"
    },
    {
      "inputs": [],
      "name": "bookCount",
      "outputs": [
        {
          "internalType": "uint256",
          "name": "",
          "type": "uint256"
        }
      ],
      "stateMutability": "view",
      "type": "function",
      "constant": true
    },
    {
      "inputs": [
        {
          "internalType": "uint256",
          "name": "",
          "type": "uint256"
        }
      ],
      "name": "books",
      "outputs": [
        {
          "internalType": "uint256",
          "name": "id",
          "type": "uint256"
        },
        {
          "internalType": "string",
          "name": "title",
          "type": "string"
        },
        {
          "internalType": "string",
          "name": "author",
          "type": "string"
        },
        {
          "internalType": "string",
          "name": "isbn",
          "type": "string"
        },
        {
          "internalType": "string",
          "name": "image",
          "type": "string"
        },
        {
          "internalType": "string",
          "name": "domain",
          "type": "string"
        },
        {
          "internalType": "uint256",
          "name": "totalCopies",
          "type": "uint256"
        },
        {
          "internalType": "uint256",
          "name": "availableCopies",
          "type": "uint256"
        }
      ],
      "stateMutability": "view",
      "type": "function",
      "constant": true
    },
    {
      "inputs": [
        {
          "internalType": "address",
          "name": "",
          "type": "address"
        },
        {
          "internalType": "uint256",
          "name": "",
          "type": "uint256"
        }
      ],
      "name": "issues",
      "outputs": [
        {
          "internalType": "uint256",
          "name": "bookId",
          "type": "uint256"
        },
        {
          "internalType": "address",
          "name": "user",
          "type": "address"
        },
        {
          "internalType": "uint256",
          "name": "issueDate",
          "type": "uint256"
        },
        {
          "internalType": "uint256",
          "name": "dueDate",
          "type": "uint256"
        },
        {
          "internalType": "bool",
          "name": "returned",
          "type": "bool"
        },
        {
          "internalType": "uint256",
          "name": "returnDate",
          "type": "uint256"
        },
        {
          "internalType": "uint256",
          "name": "finePaid",
          "type": "uint256"
        }
      ],
      "stateMutability": "view",
      "type": "function",
      "constant": true
    },
    {
      "inputs": [
        {
          "internalType": "address",
          "name": "",
          "type": "address"
        },
        {
          "internalType": "uint256",
          "name": "",
          "type": "uint256"
        }
      ],
      "name": "userIssuedBooks",
      "outputs": [
        {
          "internalType": "uint256",
          "name": "",
          "type": "uint256"
        }
      ],
      "stateMutability": "view",
      "type": "function",
      "constant": true
    },
    {
      "inputs": [
        {
          "internalType": "address",
          "name": "",
          "type": "address"
        }
      ],
      "name": "users",
      "outputs": [
        {
          "internalType": "string",
          "name": "username",
          "type": "string"
        },
        {
          "internalType": "string",
          "name": "email",
          "type": "string"
        },
        {
          "internalType": "enum Library.Role",
          "name": "role",
          "type": "uint8"
        },
        {
          "internalType": "uint256",
          "name": "gradOrLeaveDate",
          "type": "uint256"
        },
        {
          "internalType": "uint256",
          "name": "joinedDate",
          "type": "uint256"
        },
        {
          "internalType": "bool",
          "name": "isActive",
          "type": "bool"
        },
        {
          "internalType": "uint256",
          "name": "fine",
          "type": "uint256"
        },
        {
          "internalType": "string",
          "name": "rollNumber",
          "type": "string"
        },
        {
          "internalType": "string",
          "name": "facultyId",
          "type": "string"
        },
        {
          "internalType": "string",
          "name": "libraryId",
          "type": "string"
        }
      ],
      "stateMutability": "view",
      "type": "function",
      "constant": true
    },
    {
      "inputs": [
        {
          "internalType": "string",
          "name": "_username",
          "type": "string"
        },
        {
          "internalType": "string",
          "name": "_email",
          "type": "string"
        },
        {
          "internalType": "uint8",
          "name": "_role",
          "type": "uint8"
        },
        {
          "internalType": "uint256",
          "name": "_gradOrLeaveDate",
          "type": "uint256"
        },
        {
          "internalType": "string",
          "name": "_rollNumber",
          "type": "string"
        },
        {
          "internalType": "string",
          "name": "_facultyId",
          "type": "string"
        },
        {
          "internalType": "string",
          "name": "_libraryId",
          "type": "string"
        }
      ],
      "name": "registerUser",
      "outputs": [],
      "stateMutability": "nonpayable",
      "type": "function"
    },
    {
      "inputs": [
        {
          "internalType": "string",
          "name": "_title",
          "type": "string"
        },
        {
          "internalType": "string",
          "name": "_author",
          "type": "string"
        },
        {
          "internalType": "string",
          "name": "_isbn",
          "type": "string"
        },
        {
          "internalType": "string",
          "name": "_image",
          "type": "string"
        },
        {
          "internalType": "string",
          "name": "_domain",
          "type": "string"
        },
        {
          "internalType": "uint256",
          "name": "_copies",
          "type": "uint256"
        }
      ],
      "name": "addBook",
      "outputs": [],
      "stateMutability": "nonpayable",
      "type": "function"
    },
    {
      "inputs": [
        {
          "internalType": "uint256",
          "name": "_bookId",
          "type": "uint256"
        },
        {
          "internalType": "string",
          "name": "_title",
          "type": "string"
        },
        {
          "internalType": "string",
          "name": "_author",
          "type": "string"
        },
        {
          "internalType": "string",
          "name": "_isbn",
          "type": "string"
        },
        {
          "internalType": "string",
          "name": "_image",
          "type": "string"
        },
        {
          "internalType": "string",
          "name": "_domain",
          "type": "string"
        },
        {
          "internalType": "uint256",
          "name": "_copies",
          "type": "uint256"
        }
      ],
      "name": "updateBook",
      "outputs": [],
      "stateMutability": "nonpayable",
      "type": "function"
    },
    {
      "inputs": [
        {
          "internalType": "uint256",
          "name": "_bookId",
          "type": "uint256"
        }
      ],
      "name": "removeBook",
      "outputs": [],
      "stateMutability": "nonpayable",
      "type": "function"
    },
    {
      "inputs": [
        {
          "internalType": "uint256",
          "name": "_bookId",
          "type": "uint256"
        }
      ],
      "name": "borrowBook",
      "outputs": [],
      "stateMutability": "nonpayable",
      "type": "function"
    },
    {
      "inputs": [
        {
          "internalType": "uint256",
          "name": "_bookId",
          "type": "uint256"
        }
      ],
      "name": "returnBook",
      "outputs": [],
      "stateMutability": "nonpayable",
      "type": "function"
    },
    {
      "inputs": [
        {
          "internalType": "address",
          "name": "_user",
          "type": "address"
        },
        {
          "internalType": "uint256",
          "name": "_bookId",
          "type": "uint256"
        }
      ],
      "name": "calculateFine",
      "outputs": [
        {
          "internalType": "uint256",
          "name": "",
          "type": "uint256"
        }
      ],
      "stateMutability": "view",
      "type": "function",
      "constant": true
    },
    {
      "inputs": [],
      "name": "getBooks",
      "outputs": [
        {
          "components": [
            {
              "internalType": "uint256",
              "name": "id",
              "type": "uint256"
            },
            {
              "internalType": "string",
              "name": "title",
              "type": "string"
            },
            {
              "internalType": "string",
              "name": "author",
              "type": "string"
            },
            {
              "internalType": "string",
              "name": "isbn",
              "type": "string"
            },
            {
              "internalType": "string",
              "name": "image",
              "type": "string"
            },
            {
              "internalType": "string",
              "name": "domain",
              "type": "string"
            },
            {
              "internalType": "uint256",
              "name": "totalCopies",
              "type": "uint256"
            },
            {
              "internalType": "uint256",
              "name": "availableCopies",
              "type": "uint256"
            }
          ],
          "internalType": "struct Library.Book[]",
          "name": "",
          "type": "tuple[]"
        }
      ],
      "stateMutability": "view",
      "type": "function",
      "constant": true
    },
    {
      "inputs": [
        {
          "internalType": "address",
          "name": "_user",
          "type": "address"
        }
      ],
      "name": "getUserIssuedBooks",
      "outputs": [
        {
          "components": [
            {
              "internalType": "uint256",
              "name": "bookId",
              "type": "uint256"
            },
            {
              "internalType": "address",
              "name": "user",
              "type": "address"
            },
            {
              "internalType": "uint256",
              "name": "issueDate",
              "type": "uint256"
            },
            {
              "internalType": "uint256",
              "name": "dueDate",
              "type": "uint256"
            },
            {
              "internalType": "bool",
              "name": "returned",
              "type": "bool"
            },
            {
              "internalType": "uint256",
              "name": "returnDate",
              "type": "uint256"
            },
            {
              "internalType": "uint256",
              "name": "finePaid",
              "type": "uint256"
            }
          ],
          "internalType": "struct Library.Issue[]",
          "name": "",
          "type": "tuple[]"
        }
      ],
      "stateMutability": "view",
      "type": "function",
      "constant": true
    }
  ],
  "bytecode": "0x608060405234801561001057600080fd5b506001600481905550613b91806100286000396000f3fe608060405234801561001057600080fd5b50600436106100ea5760003560e01c80639f0b19e41161008c578063b905ad7811610066578063b905ad7814610297578063bec0d799146102b5578063ca5140c9146102d1578063cc8bd71f146102ed576100ea565b80639f0b19e4146102245780639f34978914610240578063a87430ba1461025e576100ea565b806368744046116100c857806368744046146101855780637e490a9e146101bc57806384cba8d8146101d85780639b87727b146101f4576100ea565b8063227f1afa146100ef5780632389f5b81461011f578063282cea9114610155575b600080fd5b610109600480360381019061010491906129b7565b610309565b6040516101169190613512565b60405180910390f35b610139600480360381019061013491906129b7565b61033a565b60405161014c979695949392919061352d565b60405180910390f35b61016f600480360381019061016a919061298e565b6103b6565b60405161017c9190613305565b60405180910390f35b61019f600480360381019061019a9190612c0a565b61062f565b6040516101b398979695949392919061359c565b60405180910390f35b6101d660048036038101906101d19190612c0a565b61091f565b005b6101f260048036038101906101ed91906129f3565b61113a565b005b61020e600480360381019061020991906129b7565b61139a565b60405161021b9190613512565b60405180910390f35b61023e60048036038101906102399190612af4565b611545565b005b610248611907565b60405161025591906132e3565b60405180910390f35b6102786004803603810190610273919061298e565b611d0c565b60405161028e9a99989796959493929190613327565b60405180910390f35b61029f612022565b6040516102ac9190613512565b60405180910390f35b6102cf60048036038101906102ca9190612c0a565b612028565b005b6102eb60048036038101906102e69190612c0a565b6121a9565b005b61030760048036038101906103029190612c33565b61256d565b005b6003602052816000526040600020818154811061032557600080fd5b90600052602060002001600091509150505481565b6002602052816000526040600020602052806000526040600020600091509150508060000154908060010160009054906101000a900473ffffffffffffffffffffffffffffffffffffffff16908060020154908060030154908060040160009054906101000a900460ff16908060050154908060060154905087565b60606000600360008473ffffffffffffffffffffffffffffffffffffffff1673ffffffffffffffffffffffffffffffffffffffff16815260200190815260200160002090506000818054905067ffffffffffffffff811115610441577f4e487b7100000000000000000000000000000000000000000000000000000000600052604160045260246000fd5b60405190808252806020026020018201604052801561047a57816020015b61046761271d565b81526020019060019003908161045f5790505b50905060005b828054905081101561062457600260008673ffffffffffffffffffffffffffffffffffffffff1673ffffffffffffffffffffffffffffffffffffffff1681526020019081526020016000206000848381548110610506577f4e487b7100000000000000000000000000000000000000000000000000000000600052603260045260246000fd5b906000526020600020015481526020019081526020016000206040518060e0016040529081600082015481526020016001820160009054906101000a900473ffffffffffffffffffffffffffffffffffffffff1673ffffffffffffffffffffffffffffffffffffffff1673ffffffffffffffffffffffffffffffffffffffff16815260200160028201548152602001600382015481526020016004820160009054906101000a900460ff1615151515815260200160058201548152602001600682015481525050828281518110610606577f4e487b7100000000000000000000000000000000000000000000000000000000600052603260045260246000fd5b6020026020010181905250808061061c906139bd565b915050610480565b508092505050919050565b60016020528060005260406000206000915090508060000154908060010180546106589061398b565b80601f01602080910402602001604051908101604052809291908181526020018280546106849061398b565b80156106d15780601f106106a6576101008083540402835291602001916106d1565b820191906000526020600020905b8154815290600101906020018083116106b457829003601f168201915b5050505050908060020180546106e69061398b565b80601f01602080910402602001604051908101604052809291908181526020018280546107129061398b565b801561075f5780601f106107345761010080835404028352916020019161075f565b820191906000526020600020905b81548152906001019060200180831161074257829003601f168201915b5050505050908060030180546107749061398b565b80601f01602080910402602001604051908101604052809291908181526020018280546107a09061398b565b80156107ed5780601f106107c2576101008083540402835291602001916107ed565b820191906000526020600020905b8154815290600101906020018083116107d057829003601f168201915b5050505050908060040180546108029061398b565b80601f016020809104026020016040519081016040528092919081815260200182805461082e9061398b565b801561087b5780601f106108505761010080835404028352916020019161087b565b820191906000526020600020905b81548152906001019060200180831161085e57829003601f168201915b5050505050908060050180546108909061398b565b80601f01602080910402602001604051908101604052809291908181526020018280546108bc9061398b565b80156109095780601f106108de57610100808354040283529160200191610909565b820191906000526020600020905b8154815290600101906020018083116108ec57829003601f168201915b5050505050908060060154908060070154905088565b6000803373ffffffffffffffffffffffffffffffffffffffff1673ffffffffffffffffffffffffffffffffffffffff16815260200190815260200160002060050160009054906101000a900460ff166109ad576040517f08c379a00000000000000000000000000000000000000000000000000000000081526004016109a4906134b2565b60405180910390fd5b60008060003373ffffffffffffffffffffffffffffffffffffffff1673ffffffffffffffffffffffffffffffffffffffff16815260200190815260200160002090506000600160008481526020019081526020016000209050600081600601541415610a7f578281600001819055506040518060400160405280601081526020017f4175746f2d53796e63656420426f6f6b00000000000000000000000000000000815250816001019080519060200190610a69929190612772565b5060058160060181905550600581600701819055505b6000816007015411610ac6576040517f08c379a0000000000000000000000000000000000000000000000000000000008152600401610abd90613432565b60405180910390fd5b6000600260003373ffffffffffffffffffffffffffffffffffffffff1673ffffffffffffffffffffffffffffffffffffffff16815260200190815260200160002060008581526020019081526020016000209050600081600201541480610b3b57508060040160009054906101000a900460ff165b610b7a576040517f08c379a0000000000000000000000000000000000000000000000000000000008152600401610b71906134f2565b60405180910390fd5b600060016003811115610bb6577f4e487b7100000000000000000000000000000000000000000000000000000000600052602160045260246000fd5b8460020160009054906101000a900460ff166003811115610c00577f4e487b7100000000000000000000000000000000000000000000000000000000600052602160045260246000fd5b14610c9d5760026003811115610c3f577f4e487b7100000000000000000000000000000000000000000000000000000000600052602160045260246000fd5b8460020160009054906101000a900460ff166003811115610c89577f4e487b7100000000000000000000000000000000000000000000000000000000600052602160045260246000fd5b14610c95576000610c98565b60055b610ca0565b60035b60ff1690506000805b8560070180549050811015610d8557600260003373ffffffffffffffffffffffffffffffffffffffff1673ffffffffffffffffffffffffffffffffffffffff1681526020019081526020016000206000876007018381548110610d35577f4e487b7100000000000000000000000000000000000000000000000000000000600052603260045260246000fd5b9060005260206000200154815260200190815260200160002060040160009054906101000a900460ff16610d72578180610d6e906139bd565b9250505b8080610d7d906139bd565b915050610ca9565b50818110610dc8576040517f08c379a0000000000000000000000000000000000000000000000000000000008152600401610dbf90613452565b60405180910390fd5b600060016003811115610e04577f4e487b7100000000000000000000000000000000000000000000000000000000600052602160045260246000fd5b8660020160009054906101000a900460ff166003811115610e4e577f4e487b7100000000000000000000000000000000000000000000000000000000600052602160045260246000fd5b14610e5a57601e610e5d565b600e5b60ff16905060006201518082610e739190613817565b42610e7e9190613790565b905060006040518060e001604052808a81526020013373ffffffffffffffffffffffffffffffffffffffff168152602001428152602001838152602001600015158152602001600081526020016000815250905080600260003373ffffffffffffffffffffffffffffffffffffffff1673ffffffffffffffffffffffffffffffffffffffff16815260200190815260200160002060008b81526020019081526020016000206000820151816000015560208201518160010160006101000a81548173ffffffffffffffffffffffffffffffffffffffff021916908373ffffffffffffffffffffffffffffffffffffffff160217905550604082015181600201556060820151816003015560808201518160040160006101000a81548160ff02191690831515021790555060a0820151816005015560c082015181600601559050506000805b896007018054905081101561103c578a8a600701828154811061100f577f4e487b7100000000000000000000000000000000000000000000000000000000600052603260045260246000fd5b90600052602060002001541415611029576001915061103c565b8080611034906139bd565b915050610fc3565b50806110d457886007018a9080600181540180825580915050600190039060005260206000200160009091909190915055600360003373ffffffffffffffffffffffffffffffffffffffff1673ffffffffffffffffffffffffffffffffffffffff1681526020019081526020016000208a90806001815401808255809150506001900390600052602060002001600090919091909150555b8760070160008154809291906110e990613961565b91905055507ff7e0b952426d470c8c62dcb264cb438292fa7b5d8a0134b0474cceec8a2f6a83896000018b428660405161112694939291906133e6565b60405180910390a150505050505050505050565b600380811115611173577f4e487b7100000000000000000000000000000000000000000000000000000000600052602160045260246000fd5b6000803373ffffffffffffffffffffffffffffffffffffffff1673ffffffffffffffffffffffffffffffffffffffff16815260200190815260200160002060020160009054906101000a900460ff1660038111156111fa577f4e487b7100000000000000000000000000000000000000000000000000000000600052602160045260246000fd5b1461123a576040517f08c379a0000000000000000000000000000000000000000000000000000000008152600401611231906134d2565b60405180910390fd5b6040518061010001604052806004548152602001878152602001868152602001858152602001848152602001838152602001828152602001828152506001600060045481526020019081526020016000206000820151816000015560208201518160010190805190602001906112b1929190612772565b5060408201518160020190805190602001906112ce929190612772565b5060608201518160030190805190602001906112eb929190612772565b506080820151816004019080519060200190611308929190612772565b5060a0820151816005019080519060200190611325929190612772565b5060c0820151816006015560e082015181600701559050507fd4568aa4f169f5f39691140d56cd40c5a4f026868daa707efc62a9897431ba4560045487836040516113729392919061363d565b60405180910390a16004600081548092919061138d906139bd565b9190505550505050505050565b600080600260008573ffffffffffffffffffffffffffffffffffffffff1673ffffffffffffffffffffffffffffffffffffffff1681526020019081526020016000206000848152602001908152602001600020905060008060008673ffffffffffffffffffffffffffffffffffffffff1673ffffffffffffffffffffffffffffffffffffffff16815260200190815260200160002090508160040160009054906101000a900460ff1680611452575060008260020154145b156114625760009250505061153f565b6000806001600381111561149f577f4e487b7100000000000000000000000000000000000000000000000000000000600052602160045260246000fd5b8360020160009054906101000a900460ff1660038111156114e9577f4e487b7100000000000000000000000000000000000000000000000000000000600052602160045260246000fd5b146114f557600a6114f8565b600a5b60ff1690506000846003015490508042111561152b5762015180814261151e9190613871565b61152891906137e6565b92505b81836115379190613817565b955050505050505b92915050565b6000600381111561157f577f4e487b7100000000000000000000000000000000000000000000000000000000600052602160045260246000fd5b6000803373ffffffffffffffffffffffffffffffffffffffff1673ffffffffffffffffffffffffffffffffffffffff16815260200190815260200160002060020160009054906101000a900460ff166003811115611606577f4e487b7100000000000000000000000000000000000000000000000000000000600052602160045260246000fd5b14611646576040517f08c379a000000000000000000000000000000000000000000000000000000000815260040161163d90613492565b60405180910390fd5b6040518061016001604052808881526020018781526020018660ff16600381111561169a577f4e487b7100000000000000000000000000000000000000000000000000000000600052602160045260246000fd5b60038111156116d2577f4e487b7100000000000000000000000000000000000000000000000000000000600052602160045260246000fd5b815260200185815260200142815260200160011515815260200160008152602001600067ffffffffffffffff811115611734577f4e487b7100000000000000000000000000000000000000000000000000000000600052604160045260246000fd5b6040519080825280602002602001820160405280156117625781602001602082028036833780820191505090505b508152602001848152602001838152602001828152506000803373ffffffffffffffffffffffffffffffffffffffff1673ffffffffffffffffffffffffffffffffffffffff16815260200190815260200160002060008201518160000190805190602001906117d2929190612772565b5060208201518160010190805190602001906117ef929190612772565b5060408201518160020160006101000a81548160ff02191690836003811115611841577f4e487b7100000000000000000000000000000000000000000000000000000000600052602160045260246000fd5b0217905550606082015181600301556080820151816004015560a08201518160050160006101000a81548160ff02191690831515021790555060c0820151816006015560e08201518160070190805190602001906118a09291906127f8565b506101008201518160080190805190602001906118be929190612772565b506101208201518160090190805190602001906118dc929190612772565b5061014082015181600a0190805190602001906118fa929190612772565b5090505050505050505050565b6060600060045467ffffffffffffffff81111561194d577f4e487b7100000000000000000000000000000000000000000000000000000000600052604160045260246000fd5b60405190808252806020026020018201604052801561198657816020015b611973612845565b81526020019060019003908161196b5790505b50905060005b600454811015611d04576001600082815260200190815260200160002060405180610100016040529081600082015481526020016001820180546119cf9061398b565b80601f01602080910402602001604051908101604052809291908181526020018280546119fb9061398b565b8015611a485780601f10611a1d57610100808354040283529160200191611a48565b820191906000526020600020905b815481529060010190602001808311611a2b57829003601f168201915b50505050508152602001600282018054611a619061398b565b80601f0160208091040260200160405190810160405280929190818152602001828054611a8d9061398b565b8015611ada5780601f10611aaf57610100808354040283529160200191611ada565b820191906000526020600020905b815481529060010190602001808311611abd57829003601f168201915b50505050508152602001600382018054611af39061398b565b80601f0160208091040260200160405190810160405280929190818152602001828054611b1f9061398b565b8015611b6c5780601f10611b4157610100808354040283529160200191611b6c565b820191906000526020600020905b815481529060010190602001808311611b4f57829003601f168201915b50505050508152602001600482018054611b859061398b565b80601f0160208091040260200160405190810160405280929190818152602001828054611bb19061398b565b8015611bfe5780601f10611bd357610100808354040283529160200191611bfe565b820191906000526020600020905b815481529060010190602001808311611be157829003601f168201915b50505050508152602001600582018054611c179061398b565b80601f0160208091040260200160405190810160405280929190818152602001828054611c439061398b565b8015611c905780601f10611c6557610100808354040283529160200191611c90565b820191906000526020600020905b815481529060010190602001808311611c7357829003601f168201915b5050505050815260200160068201548152602001600782015481525050828281518110611ce6577f4e487b7100000000000000000000000000000000000000000000000000000000600052603260045260246000fd5b60200260200101819052508080611cfc906139bd565b91505061198c565b508091505090565b6000602052806000526040600020600091509050806000018054611d2f9061398b565b80601f0160208091040260200160405190810160405280929190818152602001828054611d5b9061398b565b8015611da85780601f10611d7d57610100808354040283529160200191611da8565b820191906000526020600020905b815481529060010190602001808311611d8b57829003601f168201915b505050505090806001018054611dbd9061398b565b80601f0160208091040260200160405190810160405280929190818152602001828054611de99061398b565b8015611e365780601f10611e0b57610100808354040283529160200191611e36565b820191906000526020600020905b815481529060010190602001808311611e1957829003601f168201915b5050505050908060020160009054906101000a900460ff16908060030154908060040154908060050160009054906101000a900460ff1690806006015490806008018054611e839061398b565b80601f0160208091040260200160405190810160405280929190818152602001828054611eaf9061398b565b8015611efc5780601f10611ed157610100808354040283529160200191611efc565b820191906000526020600020905b815481529060010190602001808311611edf57829003601f168201915b505050505090806009018054611f119061398b565b80601f0160208091040260200160405190810160405280929190818152602001828054611f3d9061398b565b8015611f8a5780601f10611f5f57610100808354040283529160200191611f8a565b820191906000526020600020905b815481529060010190602001808311611f6d57829003601f168201915b50505050509080600a018054611f9f9061398b565b80601f0160208091040260200160405190810160405280929190818152602001828054611fcb9061398b565b80156120185780601f10611fed57610100808354040283529160200191612018565b820191906000526020600020905b815481529060010190602001808311611ffb57829003601f168201915b505050505090508a565b60045481565b600380811115612061577f4e487b7100000000000000000000000000000000000000000000000000000000600052602160045260246000fd5b6000803373ffffffffffffffffffffffffffffffffffffffff1673ffffffffffffffffffffffffffffffffffffffff16815260200190815260200160002060020160009054906101000a900460ff1660038111156120e8577f4e487b7100000000000000000000000000000000000000000000000000000000600052602160045260246000fd5b14612128576040517f08c379a000000000000000000000000000000000000000000000000000000000815260040161211f906134d2565b60405180910390fd5b60016000828152602001908152602001600020600080820160009055600182016000612154919061288a565b600282016000612164919061288a565b600382016000612174919061288a565b600482016000612184919061288a565b600582016000612194919061288a565b60068201600090556007820160009055505050565b6000803373ffffffffffffffffffffffffffffffffffffffff1673ffffffffffffffffffffffffffffffffffffffff16815260200190815260200160002060050160009054906101000a900460ff16612237576040517f08c379a000000000000000000000000000000000000000000000000000000000815260040161222e906134b2565b60405180910390fd5b6000600260003373ffffffffffffffffffffffffffffffffffffffff1673ffffffffffffffffffffffffffffffffffffffff1681526020019081526020016000206000838152602001908152602001600020905060008160020154141580156122af57508060040160009054906101000a900460ff16155b6122ee576040517f08c379a00000000000000000000000000000000000000000000000000000000081526004016122e590613472565b60405180910390fd5b60008060003373ffffffffffffffffffffffffffffffffffffffff1673ffffffffffffffffffffffffffffffffffffffff168152602001908152602001600020905060006001600085815260200190815260200160002090506000612353338661139a565b905060018460040160006101000a81548160ff021916908315150217905550428460050181905550808460060181905550808360060160008282546123989190613790565b925050819055508160070160008154809291906123b4906139bd565b919050555060005b83600701805490508110156125255785846007018281548110612408577f4e487b7100000000000000000000000000000000000000000000000000000000600052603260045260246000fd5b906000526020600020015414156125125783600701600185600701805490506124319190613871565b81548110612468577f4e487b7100000000000000000000000000000000000000000000000000000000600052603260045260246000fd5b90600052602060002001548460070182815481106124af577f4e487b7100000000000000000000000000000000000000000000000000000000600052603260045260246000fd5b9060005260206000200181905550836007018054806124f7577f4e487b7100000000000000000000000000000000000000000000000000000000600052603160045260246000fd5b60019003818190600052602060002001600090559055612525565b808061251d906139bd565b9150506123bc565b507f3af9299936281c2a6b0f27558359b77ddf1a5db49ee6587306183b5e3c6412b08360000186428460405161255e94939291906133e6565b60405180910390a15050505050565b6003808111156125a6577f4e487b7100000000000000000000000000000000000000000000000000000000600052602160045260246000fd5b6000803373ffffffffffffffffffffffffffffffffffffffff1673ffffffffffffffffffffffffffffffffffffffff16815260200190815260200160002060020160009054906101000a900460ff16600381111561262d577f4e487b7100000000000000000000000000000000000000000000000000000000600052602160045260246000fd5b1461266d576040517f08c379a0000000000000000000000000000000000000000000000000000000008152600401612664906134d2565b60405180910390fd5b60006001600089815260200190815260200160002090508681600101908051906020019061269c929190612772565b50858160020190805190602001906126b5929190612772565b50848160030190805190602001906126ce929190612772565b50838160040190805190602001906126e7929190612772565b5082816005019080519060200190612700929190612772565b508181600601819055508181600701819055505050505050505050565b6040518060e0016040528060008152602001600073ffffffffffffffffffffffffffffffffffffffff168152602001600081526020016000815260200160001515815260200160008152602001600081525090565b82805461277e9061398b565b90600052602060002090601f0160209004810192826127a057600085556127e7565b82601f106127b957805160ff19168380011785556127e7565b828001600101855582156127e7579182015b828111156127e65782518255916020019190600101906127cb565b5b5090506127f491906128ca565b5090565b828054828255906000526020600020908101928215612834579160200282015b82811115612833578251825591602001919060010190612818565b5b50905061284191906128ca565b5090565b60405180610100016040528060008152602001606081526020016060815260200160608152602001606081526020016060815260200160008152602001600081525090565b5080546128969061398b565b6000825580601f106128a857506128c7565b601f0160209004906000526020600020908101906128c691906128ca565b5b50565b5b808211156128e35760008160009055506001016128cb565b5090565b60006128fa6128f5846136ac565b61367b565b90508281526020810184848401111561291257600080fd5b61291d84828561391f565b509392505050565b60008135905061293481613b16565b92915050565b600082601f83011261294b57600080fd5b813561295b8482602086016128e7565b91505092915050565b60008135905061297381613b2d565b92915050565b60008135905061298881613b44565b92915050565b6000602082840312156129a057600080fd5b60006129ae84828501612925565b91505092915050565b600080604083850312156129ca57600080fd5b60006129d885828601612925565b92505060206129e985828601612964565b9150509250929050565b60008060008060008060c08789031215612a0c57600080fd5b600087013567ffffffffffffffff811115612a2657600080fd5b612a3289828a0161293a565b965050602087013567ffffffffffffffff811115612a4f57600080fd5b612a5b89828a0161293a565b955050604087013567ffffffffffffffff811115612a7857600080fd5b612a8489828a0161293a565b945050606087013567ffffffffffffffff811115612aa157600080fd5b612aad89828a0161293a565b935050608087013567ffffffffffffffff811115612aca57600080fd5b612ad689828a0161293a565b92505060a0612ae789828a01612964565b9150509295509295509295565b600080600080600080600060e0888a031215612b0f57600080fd5b600088013567ffffffffffffffff811115612b2957600080fd5b612b358a828b0161293a565b975050602088013567ffffffffffffffff811115612b5257600080fd5b612b5e8a828b0161293a565b9650506040612b6f8a828b01612979565b9550506060612b808a828b01612964565b945050608088013567ffffffffffffffff811115612b9d57600080fd5b612ba98a828b0161293a565b93505060a088013567ffffffffffffffff811115612bc657600080fd5b612bd28a828b0161293a565b92505060c088013567ffffffffffffffff811115612bef57600080fd5b612bfb8a828b0161293a565b91505092959891949750929550565b600060208284031215612c1c57600080fd5b6000612c2a84828501612964565b91505092915050565b600080600080600080600060e0888a031215612c4e57600080fd5b6000612c5c8a828b01612964565b975050602088013567ffffffffffffffff811115612c7957600080fd5b612c858a828b0161293a565b965050604088013567ffffffffffffffff811115612ca257600080fd5b612cae8a828b0161293a565b955050606088013567ffffffffffffffff811115612ccb57600080fd5b612cd78a828b0161293a565b945050608088013567ffffffffffffffff811115612cf457600080fd5b612d008a828b0161293a565b93505060a088013567ffffffffffffffff811115612d1d57600080fd5b612d298a828b0161293a565b92505060c0612d3a8a828b01612964565b91505092959891949750929550565b6000612d55838361316b565b905092915050565b6000612d698383613237565b60e08301905092915050565b612d7e816138a5565b82525050565b612d8d816138a5565b82525050565b6000612d9e82613711565b612da8818561374c565b935083602082028501612dba856136dc565b8060005b85811015612df65784840389528151612dd78582612d49565b9450612de283613732565b925060208a01995050600181019050612dbe565b50829750879550505050505092915050565b6000612e138261371c565b612e1d818561375d565b9350612e28836136ec565b8060005b83811015612e59578151612e408882612d5d565b9750612e4b8361373f565b925050600181019050612e2c565b5085935050505092915050565b612e6f816138b7565b82525050565b612e7e816138b7565b82525050565b612e8d8161390d565b82525050565b6000612e9e82613727565b612ea8818561376e565b9350612eb881856020860161392e565b612ec181613af1565b840191505092915050565b6000612ed782613727565b612ee1818561377f565b9350612ef181856020860161392e565b612efa81613af1565b840191505092915050565b60008154612f128161398b565b612f1c818661377f565b94506001821660008114612f375760018114612f4957612f7c565b60ff1983168652602086019350612f7c565b612f52856136fc565b60005b83811015612f7457815481890152600182019150602081019050612f55565b808801955050505b50505092915050565b6000612f9260138361377f565b91507f4e6f20636f7069657320617661696c61626c65000000000000000000000000006000830152602082019050919050565b6000612fd260148361377f565b91507f426f72726f77206c696d697420726561636865640000000000000000000000006000830152602082019050919050565b6000613012601e8361377f565b91507f4e6f7420697373756564206f7220616c72656164792072657475726e656400006000830152602082019050919050565b600061305260128361377f565b91507f416c7265616479207265676973746572656400000000000000000000000000006000830152602082019050919050565b6000613092600f8361377f565b91507f55736572206e6f742061637469766500000000000000000000000000000000006000830152602082019050919050565b60006130d2600e8361377f565b91507f4f6e6c79206c696272617269616e0000000000000000000000000000000000006000830152602082019050919050565b600061311260248361377f565b91507f426f6f6b20616c72656164792069737375656420616e64206e6f74207265747560008301527f726e6564000000000000000000000000000000000000000000000000000000006020830152604082019050919050565b60006101008301600083015161318460008601826132c5565b506020830151848203602086015261319c8282612e93565b915050604083015184820360408601526131b68282612e93565b915050606083015184820360608601526131d08282612e93565b915050608083015184820360808601526131ea8282612e93565b91505060a083015184820360a08601526132048282612e93565b91505060c083015161321960c08601826132c5565b5060e083015161322c60e08601826132c5565b508091505092915050565b60e08201600082015161324d60008501826132c5565b5060208201516132606020850182612d75565b50604082015161327360408501826132c5565b50606082015161328660608501826132c5565b5060808201516132996080850182612e66565b5060a08201516132ac60a08501826132c5565b5060c08201516132bf60c08501826132c5565b50505050565b6132ce816138f6565b82525050565b6132dd816138f6565b82525050565b600060208201905081810360008301526132fd8184612d93565b905092915050565b6000602082019050818103600083015261331f8184612e08565b905092915050565b6000610140820190508181036000830152613342818d612ecc565b90508181036020830152613356818c612ecc565b9050613365604083018b612e84565b613372606083018a6132d4565b61337f60808301896132d4565b61338c60a0830188612e75565b61339960c08301876132d4565b81810360e08301526133ab8186612ecc565b90508181036101008301526133c08185612ecc565b90508181036101208301526133d58184612ecc565b90509b9a5050505050505050505050565b600060808201905081810360008301526134008187612f05565b905061340f60208301866132d4565b61341c60408301856132d4565b61342960608301846132d4565b95945050505050565b6000602082019050818103600083015261344b81612f85565b9050919050565b6000602082019050818103600083015261346b81612fc5565b9050919050565b6000602082019050818103600083015261348b81613005565b9050919050565b600060208201905081810360008301526134ab81613045565b9050919050565b600060208201905081810360008301526134cb81613085565b9050919050565b600060208201905081810360008301526134eb816130c5565b9050919050565b6000602082019050818103600083015261350b81613105565b9050919050565b600060208201905061352760008301846132d4565b92915050565b600060e082019050613542600083018a6132d4565b61354f6020830189612d84565b61355c60408301886132d4565b61356960608301876132d4565b6135766080830186612e75565b61358360a08301856132d4565b61359060c08301846132d4565b98975050505050505050565b6000610100820190506135b2600083018b6132d4565b81810360208301526135c4818a612ecc565b905081810360408301526135d88189612ecc565b905081810360608301526135ec8188612ecc565b905081810360808301526136008187612ecc565b905081810360a08301526136148186612ecc565b905061362360c08301856132d4565b61363060e08301846132d4565b9998505050505050505050565b600060608201905061365260008301866132d4565b81810360208301526136648185612ecc565b905061367360408301846132d4565b949350505050565b6000604051905081810181811067ffffffffffffffff821117156136a2576136a1613ac2565b5b8060405250919050565b600067ffffffffffffffff8211156136c7576136c6613ac2565b5b601f19601f8301169050602081019050919050565b6000819050602082019050919050565b6000819050602082019050919050565b60008190508160005260206000209050919050565b600081519050919050565b600081519050919050565b600081519050919050565b6000602082019050919050565b6000602082019050919050565b600082825260208201905092915050565b600082825260208201905092915050565b600082825260208201905092915050565b600082825260208201905092915050565b600061379b826138f6565b91506137a6836138f6565b9250827fffffffffffffffffffffffffffffffffffffffffffffffffffffffffffffffff038211156137db576137da613a06565b5b828201905092915050565b60006137f1826138f6565b91506137fc836138f6565b92508261380c5761380b613a35565b5b828204905092915050565b6000613822826138f6565b915061382d836138f6565b9250817fffffffffffffffffffffffffffffffffffffffffffffffffffffffffffffffff048311821515161561386657613865613a06565b5b828202905092915050565b600061387c826138f6565b9150613887836138f6565b92508282101561389a57613899613a06565b5b828203905092915050565b60006138b0826138d6565b9050919050565b60008115159050919050565b60008190506138d182613b02565b919050565b600073ffffffffffffffffffffffffffffffffffffffff82169050919050565b6000819050919050565b600060ff82169050919050565b6000613918826138c3565b9050919050565b82818337600083830152505050565b60005b8381101561394c578082015181840152602081019050613931565b8381111561395b576000848401525b50505050565b600061396c826138f6565b915060008214156139805761397f613a06565b5b600182039050919050565b600060028204905060018216806139a357607f821691505b602082108114156139b7576139b6613a93565b5b50919050565b60006139c8826138f6565b91507fffffffffffffffffffffffffffffffffffffffffffffffffffffffffffffffff8214156139fb576139fa613a06565b5b600182019050919050565b7f4e487b7100000000000000000000000000000000000000000000000000000000600052601160045260246000fd5b7f4e487b7100000000000000000000000000000000000000000000000000000000600052601260045260246000fd5b7f4e487b7100000000000000000000000000000000000000000000000000000000600052602160045260246000fd5b7f4e487b7100000000000000000000000000000000000000000000000000000000600052602260045260246000fd5b7f4e487b7100000000000000000000000000000000000000000000000000000000600052604160045260246000fd5b6000601f19601f8301169050919050565b60048110613b1357613b12613a64565b5b50565b613b1f816138a5565b8114613b2a57600080fd5b50565b613b36816138f6565b8114613b4157600080fd5b50565b613b4d81613900565b8114613b5857600080fd5b5056fea2646970667358221220b1b69e67920244eb2a45197e36400238901ee4037e74d028b6ae495c15af4a0964736f6c63430008000033",
  "immutableReferences": {},
  "source": "// SPDX-License-Identifier: MIT\r\npragma solidity ^0.8.0;\r\n\r\ncontract Library {\r\n    enum Role { None, Student, Faculty, Librarian }\r\n\r\n    struct User {\r\n        string username;\r\n        string email;\r\n        Role role;\r\n        uint256 gradOrLeaveDate; // Unix timestamp\r\n        uint256 joinedDate;      // New: Joined Date\r\n        bool isActive;\r\n        uint256 fine;\r\n        uint256[] issuedBooks;\r\n        string rollNumber; // For students\r\n        string facultyId; // For faculty\r\n        string libraryId; // For librarians\r\n    }\r\n\r\n    struct Book {\r\n        uint256 id;\r\n        string title;\r\n        string author;\r\n        string isbn;\r\n        string image;\r\n        string domain;\r\n        uint256 totalCopies;\r\n        uint256 availableCopies;\r\n    }\r\n\r\n    struct Issue {\r\n        uint256 bookId;\r\n        address user;\r\n        uint256 issueDate;\r\n        uint256 dueDate;\r\n        bool returned;\r\n        uint256 returnDate;\r\n        uint256 finePaid;\r\n    }\r\n\r\n    mapping(address => User) public users;\r\n    mapping(uint256 => Book) public books;\r\n    mapping(address => mapping(uint256 => Issue)) public issues; // user => bookId => Issue\r\n    mapping(address => uint256[]) public userIssuedBooks;\r\n    uint256 public bookCount;\r\n\r\n    event BookIssued(string username, uint256 bookId, uint256 timestamp, uint256 dueDate);\r\n    event BookReturned(string username, uint256 bookId, uint256 timestamp, uint256 fine);\r\n    event BookAdded(uint256 bookId, string title, uint256 copies);\r\n    event FinePaid(string username, uint256 bookId, uint256 amount, uint256 timestamp);\r\n\r\n    // Add a simple constructor to fix deployment issues\r\n    constructor() {\r\n        bookCount = 1; // Start IDs at 1 to match SQLite\r\n    }\r\n\r\n    modifier onlyActiveUser() {\r\n        require(users[msg.sender].isActive, \"User not active\");\r\n        // Removed graduation date check to allow access even after graduation\r\n        // This is more practical for real-world scenarios\r\n        _;\r\n    }\r\n\r\n    function registerUser(string memory _username, string memory _email, uint8 _role, uint256 _gradOrLeaveDate, string memory _rollNumber, string memory _facultyId, string memory _libraryId) public {\r\n        require(users[msg.sender].role == Role.None, \"Already registered\");\r\n        // Removed graduation date validation to allow more flexibility\r\n        users[msg.sender] = User(_username, _email, Role(_role), _gradOrLeaveDate, block.timestamp, true, 0, new uint256[](0), _rollNumber, _facultyId, _libraryId);\r\n    }\r\n\r\n    function addBook(string memory _title, string memory _author, string memory _isbn, string memory _image, string memory _domain, uint256 _copies) public {\r\n        require(users[msg.sender].role == Role.Librarian, \"Only librarian\");\r\n        books[bookCount] = Book(bookCount, _title, _author, _isbn, _image, _domain, _copies, _copies);\r\n        emit BookAdded(bookCount, _title, _copies);\r\n        bookCount++;\r\n    }\r\n\r\n    function updateBook(uint256 _bookId, string memory _title, string memory _author, string memory _isbn, string memory _image, string memory _domain, uint256 _copies) public {\r\n        require(users[msg.sender].role == Role.Librarian, \"Only librarian\");\r\n        Book storage book = books[_bookId];\r\n        book.title = _title;\r\n        book.author = _author;\r\n        book.isbn = _isbn;\r\n        book.image = _image;\r\n        book.domain = _domain;\r\n        book.totalCopies = _copies;\r\n        book.availableCopies = _copies;\r\n    }\r\n\r\n    function removeBook(uint256 _bookId) public {\r\n        require(users[msg.sender].role == Role.Librarian, \"Only librarian\");\r\n        delete books[_bookId];\r\n    }\r\n\r\n    function borrowBook(uint256 _bookId) public onlyActiveUser {\r\n        User storage user = users[msg.sender];\r\n        Book storage book = books[_bookId];\r\n        \r\n        // Lazy initialization: if book doesn't exist on-chain, initialize it with default 5 copies\r\n        if (book.totalCopies == 0) {\r\n            book.id = _bookId;\r\n            book.title = \"Auto-Synced Book\"; // Placeholder, real title in DB/Receipt\r\n            book.totalCopies = 5;\r\n            book.availableCopies = 5;\r\n        }\r\n\r\n        require(book.availableCopies > 0, \"No copies available\");\r\n        \r\n        // Fix: Allow re-borrowing if previous issue was returned\r\n        Issue storage existingIssue = issues[msg.sender][_bookId];\r\n        require(existingIssue.issueDate == 0 || existingIssue.returned, \"Book already issued and not returned\");\r\n\r\n        uint256 maxBooks = user.role == Role.Student ? 3 : (user.role == Role.Faculty ? 5 : 0);\r\n        \r\n        // Filter out returned books from the count\r\n        uint256 activeIssuesCount = 0;\r\n        for(uint i = 0; i < user.issuedBooks.length; i++) {\r\n             if(!issues[msg.sender][user.issuedBooks[i]].returned) {\r\n                 activeIssuesCount++;\r\n             }\r\n        }\r\n        require(activeIssuesCount < maxBooks, \"Borrow limit reached\");\r\n\r\n        uint256 dueDays = user.role == Role.Student ? 14 : 30;\r\n        uint256 dueDate = block.timestamp + dueDays * 1 days;\r\n\r\n        Issue memory newIssue = Issue(_bookId, msg.sender, block.timestamp, dueDate, false, 0, 0);\r\n        issues[msg.sender][_bookId] = newIssue;\r\n        \r\n        // Add to issuedBooks list if not already there (or re-add if we want to track history, but struct is single-entry per user-book pair in this simple design)\r\n        // correct logic: if it's a re-borrow, we just update the mapping. \r\n        // We also need to update user.issuedBooks. Ideally detailed history is stored off-chain or in events.\r\n        // For on-chain simplicity, we'll just track active issues in `issuedBooks` or handle duplicates.\r\n        \r\n        bool alreadyInList = false;\r\n        for(uint i=0; i<user.issuedBooks.length; i++){\r\n            if(user.issuedBooks[i] == _bookId){\r\n                alreadyInList = true;\r\n                break;\r\n            }\r\n        }\r\n        if(!alreadyInList) {\r\n             user.issuedBooks.push(_bookId);\r\n             userIssuedBooks[msg.sender].push(_bookId);\r\n        }\r\n\r\n        book.availableCopies--;\r\n\r\n        emit BookIssued(user.username, _bookId, block.timestamp, dueDate);\r\n    }\r\n\r\n    function returnBook(uint256 _bookId) public onlyActiveUser {\r\n        Issue storage issue = issues[msg.sender][_bookId];\r\n        require(issue.issueDate != 0 && !issue.returned, \"Not issued or already returned\");\r\n        User storage user = users[msg.sender];\r\n        Book storage book = books[_bookId];\r\n\r\n        uint256 fine = calculateFine(msg.sender, _bookId);\r\n        issue.returned = true;\r\n        issue.returnDate = block.timestamp;\r\n        issue.finePaid = fine;\r\n        user.fine += fine;\r\n        book.availableCopies++;\r\n\r\n        // Remove from issuedBooks\r\n        for (uint i = 0; i < user.issuedBooks.length; i++) {\r\n            if (user.issuedBooks[i] == _bookId) {\r\n                user.issuedBooks[i] = user.issuedBooks[user.issuedBooks.length - 1];\r\n                user.issuedBooks.pop();\r\n                break;\r\n            }\r\n        }\r\n\r\n        emit BookReturned(user.username, _bookId, block.timestamp, fine);\r\n    }\r\n\r\n    function calculateFine(address _user, uint256 _bookId) public view returns (uint256) {\r\n        Issue storage issue = issues[_user][_bookId];\r\n        User storage user = users[_user];\r\n        if (issue.returned || issue.issueDate == 0) return 0;\r\n        uint256 lateDays = 0;\r\n        uint256 finePerDay = user.role == Role.Student ? 10 : 10; // 10 per day for both\r\n        uint256 dueDate = issue.dueDate;\r\n        if (block.timestamp > dueDate) {\r\n            lateDays = (block.timestamp - dueDate) / 1 days;\r\n        }\r\n        return lateDays * finePerDay;\r\n    }\r\n\r\n    function getBooks() public view returns (Book[] memory) {\r\n        Book[] memory allBooks = new Book[](bookCount);\r\n        for (uint i = 0; i < bookCount; i++) {\r\n            allBooks[i] = books[i];\r\n        }\r\n        return allBooks;\r\n    }\r\n\r\n    function getUserIssuedBooks(address _user) public view returns (Issue[] memory) {\r\n        uint256[] storage ids = userIssuedBooks[_user];\r\n        Issue[] memory result = new Issue[](ids.length);\r\n        for (uint i = 0; i < ids.length; i++) {\r\n            result[i] = issues[_user][ids[i]];\r\n        }\r\n        return result;\r\n    }\r\n} ",
  "sourcePath": "C:\\Users\\Spoorthi Garikipati\\Downloads\\LIBRARY\\LIBRARY\\contracts\\Library.sol",
  "compiler": {
    "name": "solc",
    "version": "0.8.0+commit.c7dfd78e.Emscripten.clang"
  },
  "schemaVersion": "3.4.16",
  "updatedAt": "2026-02-09T07:11:22.179Z",
  "networkType": "ethereum",
  "devdoc": {
    "kind": "dev",
    "methods": {},
    "version": 1
  },
  "userdoc": {
    "kind": "user",
    "methods": {},
    "version": 1
  }
}